:040000000128F82FAC
:1006C80020001C150800F10071087123080064005F
:1006D80080010131890B6C2B0034F0002000111EC1
:1006E800722B700823009A000800033020009C0039
:1006F8009B309B009A01911064230800F100F001DF
:100708003A30710203188E2B30307102031C8E2B85
:10071800F001F00A700C08003C30250093009501A8
:1007280080309400023096009B3091009201003096
:10073800F000F100D7230800F300F201731CA82B86
:100748007008F1007108F2070310F00D0310F30CA4
:100758007308031DA22B72080800083023009F00AD
:1007680080309D0024309E0022309B009C01210097
:100778000C1222000C121D159D17080021000C15E3
:100788008C14F0302400920094171417243095002C
:1007980095161508F0390838950097159710171011
:1007A8009101930108007108F3007008F200F33614
:1007B800F20CF336F20C7208250091007008033928
:1007C800F2000430F235890BE62B1308CF39720496
:1007D80093000800703021009900980123008C01D3
:1007E800393024008C00210095170C1022000C10C1
:1007F80021008C140C15C43022009D00B1239023D5
:100808007923C2230800F401F501701C0F2C72082B
:10081800F4077308F53D0130F235F30D890B102C00
:100828000130F136F00C890B152C70087104031D8A
:10083800092C7508F1007408F0000800780879049C
:100848000319492CFD01FD0AF91B342C0130F83538
:10085800F90D890B2B2C0130FC007C08FD07282C96
:1008680079087B02031D3A2C78087A02031C402C75
:100878007808FA027908FB3B0130F936F80C890B45
:10088800412C0130FD02031D342C7B08F9007A0845
:10089800F8000800F100240094190800161416182E
:1008A800532C2000921D5A2C921108007108240024
:1008B8009100141C14195D2C161F662C1615161D94
:1008C8000800632C70089100141C1419682C161F5A
:1008D800712C1615161D08006E2C2000921D762C02
:1008E80092110800240016151619782C2000921D64
:1008F800080092110800F501F60170087104031947
:10090800AE2CF701F70AF11B932C0130F035F10DED
:10091800890B8A2C0130F4007408F707872C013002
:10092800F535F60D890B942C71087302031D9E2C66
:1009380070087202031CA52C7008F2027108F33BC0
:1009480075140130F136F00C890BA62C0130F70232
:10095800031D932C7608F1007508F0000800013497
:1009680000340A34003464340034E8340334103476
:100978002734253432346434203425343234643412
:100988002034253432346434203425343234643409
:1009980020342534323464342034253432346434F9
:1009A800203425343234643420340D340A3400348D
:1009B800533479347334743465346D342034693481
:1009C8006E3469347434203463346F346D34703465
:1009D8006C346534743465340D340A340034F300EF
:1009E8002400941DF92C0330080016141618FA2C4C
:1009F8002000921D022D9211023008007308013860
:100A080024009100240014180B2D141D0E2D200015
:100A1800921D062D2000921D142D921102300800FF
:100A28002400161F3C2D16151619182D0030080025
:100A38002400961596191E2D1108F20070088600DC
:100A48008701720881000130F2007208F007710313
:100A5800031D302D9616312D96121616161A322DA4
:100A68000130F1022000921D3C2D92110230080045
:100A78007108031D1C2D240016151619412D200080
:100A8800921D492D92110230080001300800F9002A
:100A98007908860087010F300105F5000A30F60055
:100AA8007608F0007908860087010108F70004300D
:100AB800F736890B5C2D7708A0237507F8007408B2
:100AC8008600870178088100790A860087010F303F
:100AD8000105F5000A30F6007608F000790A86006C
:100AE80087010108F7000430F736890B782D77085D
:100AF800A0237507F800740A86008701780881002A
:100B08007908023E860087010F300105F5000A309A
:100B1800F6007608F0007908023E86008701010891
:100B2800F7000430F736890B962D7708A023750750
:100B3800F8007408023E8600870178088100790869
:100B4800033E860087010108F5007408033E86000D
:100B58008701750881007908043E860087010F30F7
:100B68000105F5000A30F6007608F0007908043E21
:100B7800860087010108F7000430F736890BC12D7C
:100B88007708A0237507F8007408043E86008701DB
:100B9800780881007908053E860087010F30010535
:100BA800F5000A30F6007608F0007908053E860060
:100BB80087010108F7000430F736890BE02D770824
:100BC800A0237507F8007408053E86008701780899
:100BD80081007908063E860087010F300105F5007F
:100BE8000A30F6007608F0007908063E860087018C
:100BF8000108F7000430F736890BFF2D7708A0238A
:100C08007507F8007408063E860087017808810099
:100C18000800EE2315302000BE004B30BD00D13057
:100C2800BC00BC0B152EBD0B152EBE0B152E0000DF
:100C3800DC302000A0008430A100D8266630860071
:100C480000308700553084000030850007302000D0
:100C5800BC0016001A00BC0B2D2E5C30860000303C
:100C680087004A308400003085000A30BC00160036
:100C78001A00BC0B3B2ED401F001D0304E244A3070
:100C88002000BC003C08F0000730BD003D08F10022
:100C9800D030F3242000BE003E08D400F001D0304C
:100CA8004E244A302000BC003C08F0000730BD004C
:100CB8003D08F100D030F3242000BE003E08D400E7
:100CC8005530BC003C08F4004A304B25BD302000AC
:100CD800A0008430A1005508BC00BD013C08A2005A
:100CE8003D08A3005608BE00BF013E08A4003F0807
:100CF800A5005708C000C1014008A6004108A70088
:100D08005808C200C3014208A8004308A9005908AE
:100D1800C400C5014408AA004508AB005A08C6002B
:100D2800C7014608AC004708AD005B08C800C90108
:100D38004808AE004908AF00D826073020005706FB
:100D4800031DC92E56080319C02EC92E6E08F100BE
:100D58006D08F000D72301302000ED070030EE3D8C
:100D68000F30BE003530BD005E30BC00BC0BBA2E63
:100D7800BD0BBA2EBE0BBA2E023020006E026F30A9
:100D880003196D02031CAA2EC82E15302000BE00C0
:100D98004B30BD00D130BC00BC0BD02EBD0BD02ECB
:100DA800BE0BD02E0000522E22302000B00030089A
:100DB800B40020002108B1002008B000A00A0319DF
:100DC800A10A30088400310885000008B200320802
:100DD800BB003B080319080025303B060319F72E12
:100DE8003B086723DD2E2000B901BA01B6012008AF
:100DF80084002108850000088223031C302F20006E
:100E0800B901BA010A30F0000030F10020003A08B8
:100E1800F3003908F200072471082000BA007008AE
:100E2800B90020088400210885000008D03EB000E1
:100E3800FF3003180030B1003008B9073108BA3D57
:100E48000130A0070030A13D20088400210885005A
:100E5800000882230318062F20002108B10020086B
:100E6800B000A00A0319A10A3008840031088500DF
:100E78000008BB00003A0319F72F643A0319482FFA
:100E88000D3A0319482FDD2E20003408860087010B
:100E9800403FB700413FB8000230B0003008B40707
:100EA800B81F5F2F0330B0003008B604B709B8097F
:100EB800B70A0319B80ABB01BB0A05303B06031978
:100EC800842F3B08B000B101B035B10DB330300705
:100ED80084008430313D8500003FB200013FB300FB
:100EE80033083802031D7A2F32083702031C842F77
:100EF8000130B0003008BB0705303B06031D652FE5
:100F080039083A040319902F360803390319902F2A
:100F1800FF30B907FF30BA3D3B08B000B101B01B44
:100F2800B1033108803AB2003A08803A3202031D10
:100F38009F2F390830020318AC2F20003B08B0005F
:100F4800B101B01BB1033008B9023108BA3BAF2F69
:100F58002000B901BA0139083A040319BE2F20301C
:100F68006723FF302000B907FF30BA3D39083A043B
:100F7800031DB32F360803390319C42F2D306723F7
:100F880020003B08B0003008B500FF302000B0005A
:100F98003008B507350A0319DD2E0A30F80000308D
:100FA800F9003508B000B101B035B10DB3303007E4
:100FB80084008430313D8500003FF000013FF1009E
:100FC8003808F3003708F2007F247108FB00700826
:100FD800FA0022247808303E2000B2003208BB0014
:100FE8003B086723C92F08005C3084000030850067
:080FF80014306B2320000D2EC4
:020000040001F9
:04000E00E4FFFFFE0E
:00000001FF
